{
  "contractName": "JoyTokenSale",
  "abi": [
    {
      "inputs": [
        {
          "internalType": "contract JoyToken",
          "name": "_tokenContract",
          "type": "address"
        },
        {
          "internalType": "uint256",
          "name": "_tokenPrice",
          "type": "uint256"
        }
      ],
      "payable": false,
      "stateMutability": "nonpayable",
      "type": "constructor"
    },
    {
      "anonymous": false,
      "inputs": [
        {
          "indexed": false,
          "internalType": "address",
          "name": "_buyer",
          "type": "address"
        },
        {
          "indexed": false,
          "internalType": "uint256",
          "name": "_amount",
          "type": "uint256"
        }
      ],
      "name": "Sell",
      "type": "event"
    },
    {
      "constant": true,
      "inputs": [],
      "name": "tokenContract",
      "outputs": [
        {
          "internalType": "contract JoyToken",
          "name": "",
          "type": "address"
        }
      ],
      "payable": false,
      "stateMutability": "view",
      "type": "function"
    },
    {
      "constant": true,
      "inputs": [],
      "name": "tokenPrice",
      "outputs": [
        {
          "internalType": "uint256",
          "name": "",
          "type": "uint256"
        }
      ],
      "payable": false,
      "stateMutability": "view",
      "type": "function"
    },
    {
      "constant": true,
      "inputs": [],
      "name": "tokensSold",
      "outputs": [
        {
          "internalType": "uint256",
          "name": "",
          "type": "uint256"
        }
      ],
      "payable": false,
      "stateMutability": "view",
      "type": "function"
    },
    {
      "constant": false,
      "inputs": [
        {
          "internalType": "uint256",
          "name": "_numberOfTokens",
          "type": "uint256"
        }
      ],
      "name": "buyTokens",
      "outputs": [],
      "payable": true,
      "stateMutability": "payable",
      "type": "function"
    },
    {
      "constant": false,
      "inputs": [],
      "name": "endSale",
      "outputs": [],
      "payable": false,
      "stateMutability": "nonpayable",
      "type": "function"
    }
  ],
  "bytecode": "0x608060405234801561001057600080fd5b506040516109443803806109448339818101604052604081101561003357600080fd5b810190808051906020019092919080519060200190929190505050336000806101000a81548173ffffffffffffffffffffffffffffffffffffffff021916908373ffffffffffffffffffffffffffffffffffffffff16021790555081600160006101000a81548173ffffffffffffffffffffffffffffffffffffffff021916908373ffffffffffffffffffffffffffffffffffffffff16021790555080600281905550505061085d806100e76000396000f3fe60806040526004361061004a5760003560e01c80633610724e1461004f578063380d831b1461007d578063518ab2a81461009457806355a373d6146100bf5780637ff9b59614610116575b600080fd5b61007b6004803603602081101561006557600080fd5b8101908080359060200190929190505050610141565b005b34801561008957600080fd5b506100926103a9565b005b3480156100a057600080fd5b506100a96107ca565b6040518082815260200191505060405180910390f35b3480156100cb57600080fd5b506100d46107d0565b604051808273ffffffffffffffffffffffffffffffffffffffff1673ffffffffffffffffffffffffffffffffffffffff16815260200191505060405180910390f35b34801561012257600080fd5b5061012b6107f6565b6040518082815260200191505060405180910390f35b61014d816002546107fc565b341461015857600080fd5b80600160009054906101000a900473ffffffffffffffffffffffffffffffffffffffff1673ffffffffffffffffffffffffffffffffffffffff166370a08231306040518263ffffffff1660e01b8152600401808273ffffffffffffffffffffffffffffffffffffffff1673ffffffffffffffffffffffffffffffffffffffff16815260200191505060206040518083038186803b1580156101f857600080fd5b505afa15801561020c573d6000803e3d6000fd5b505050506040513d602081101561022257600080fd5b8101908080519060200190929190505050101561023e57600080fd5b600160009054906101000a900473ffffffffffffffffffffffffffffffffffffffff1673ffffffffffffffffffffffffffffffffffffffff1663a9059cbb33836040518363ffffffff1660e01b8152600401808373ffffffffffffffffffffffffffffffffffffffff1673ffffffffffffffffffffffffffffffffffffffff16815260200182815260200192505050602060405180830381600087803b1580156102e757600080fd5b505af11580156102fb573d6000803e3d6000fd5b505050506040513d602081101561031157600080fd5b810190808051906020019092919050505061032b57600080fd5b806003600082825401925050819055507f5e5e995ce3133561afceaa51a9a154d5db228cd7525d34df5185582c18d3df093382604051808373ffffffffffffffffffffffffffffffffffffffff1673ffffffffffffffffffffffffffffffffffffffff1681526020018281526020019250505060405180910390a150565b6000809054906101000a900473ffffffffffffffffffffffffffffffffffffffff1673ffffffffffffffffffffffffffffffffffffffff163373ffffffffffffffffffffffffffffffffffffffff161461040257600080fd5b600160009054906101000a900473ffffffffffffffffffffffffffffffffffffffff1673ffffffffffffffffffffffffffffffffffffffff1663a9059cbb6000809054906101000a900473ffffffffffffffffffffffffffffffffffffffff16600160009054906101000a900473ffffffffffffffffffffffffffffffffffffffff1673ffffffffffffffffffffffffffffffffffffffff166370a08231306040518263ffffffff1660e01b8152600401808273ffffffffffffffffffffffffffffffffffffffff1673ffffffffffffffffffffffffffffffffffffffff16815260200191505060206040518083038186803b15801561050157600080fd5b505afa158015610515573d6000803e3d6000fd5b505050506040513d602081101561052b57600080fd5b81019080805190602001909291905050506040518363ffffffff1660e01b8152600401808373ffffffffffffffffffffffffffffffffffffffff1673ffffffffffffffffffffffffffffffffffffffff16815260200182815260200192505050602060405180830381600087803b1580156105a557600080fd5b505af11580156105b9573d6000803e3d6000fd5b505050506040513d60208110156105cf57600080fd5b81019080805190602001909291905050506105e957600080fd5b600160009054906101000a900473ffffffffffffffffffffffffffffffffffffffff1673ffffffffffffffffffffffffffffffffffffffff1663a9059cbb6000809054906101000a900473ffffffffffffffffffffffffffffffffffffffff16600160009054906101000a900473ffffffffffffffffffffffffffffffffffffffff1673ffffffffffffffffffffffffffffffffffffffff166370a08231306040518263ffffffff1660e01b8152600401808273ffffffffffffffffffffffffffffffffffffffff1673ffffffffffffffffffffffffffffffffffffffff16815260200191505060206040518083038186803b1580156106e857600080fd5b505afa1580156106fc573d6000803e3d6000fd5b505050506040513d602081101561071257600080fd5b81019080805190602001909291905050506040518363ffffffff1660e01b8152600401808373ffffffffffffffffffffffffffffffffffffffff1673ffffffffffffffffffffffffffffffffffffffff16815260200182815260200192505050602060405180830381600087803b15801561078c57600080fd5b505af11580156107a0573d6000803e3d6000fd5b505050506040513d60208110156107b657600080fd5b810190808051906020019092919050505050565b60035481565b600160009054906101000a900473ffffffffffffffffffffffffffffffffffffffff1681565b60025481565b600080821480610819575082828385029250828161081657fe5b04145b61082257600080fd5b9291505056fea265627a7a72315820aafd1c64d63c6a8400e5285facd3302c89a21d9f377c687a8033240e55ba52b864736f6c63430005100032",
  "source": "// SPDX-License-Identifier: MIT\npragma solidity >=0.4.22 <0.9.0;\n\nimport \"./JoyToken.sol\";\n\n// Smart contract that handles the token sale\ncontract JoyTokenSale{\n    address admin;\n    JoyToken public tokenContract;\n    uint256 public tokenPrice;\n    uint256 public tokensSold;\n\n    event Sell(address _buyer, uint256 _amount);\n \n    constructor(JoyToken _tokenContract, uint256 _tokenPrice) public {\n        // Admin (external account connected to the blockcahin having special previleges)\n        admin = msg.sender;\n\n        // Interact with the Token contract\n        tokenContract = _tokenContract;\n\n        // Token price (in Ethers)\n        tokenPrice = _tokenPrice;\n    }\n\n    // Safe Solidity multiplication: https://github.com/dapphub/ds-math/blob/master/src/math.sol#L25\n    function multiply(uint x, uint y) internal pure returns (uint z){\n        require(y == 0 || (z = x * y) / y == x);\n    }\n\n    // Buy tokens\n    function buyTokens(uint256 _numberOfTokens) public payable{\n\n        // Require that value is equal to tokens\n        require(msg.value == multiply(_numberOfTokens, tokenPrice));\n\n        // Require that there are enough tokens in the contract\n        require(tokenContract.balanceOf(address(this)) >= _numberOfTokens);\n\n        // Require that a transfer is successful - Buy functionality!\n        require(tokenContract.transfer(msg.sender, _numberOfTokens));\n\n        // Keep track of number of tokens sold\n        tokensSold += _numberOfTokens;\n\n        // Trigger the sell event\n        emit Sell(msg.sender, _numberOfTokens);\n    }\n\n    // Ending Token JoyTokenSale\n    function endSale() public {\n        // Require admin\n        require(msg.sender == admin);\n\n        // Transfer remaning JoyTokens (from this contract) back to admin\n        require(tokenContract.transfer(admin, tokenContract.balanceOf(address(this))));\n        \n        // One more transfer is done to ensure that this contract has 0 balance .. \n        tokenContract.transfer(admin, tokenContract.balanceOf(address(this)));\n\n        // Destroy this smart contract :(\n    }\n\n}   \n",
  "sourcePath": "/home/njwardhan/Desktop/git/Self/JoyCoin/contracts/JoyTokenSale.sol",
  "compiler": {
    "name": "solc",
    "version": "0.5.16+commit.9c3226ce.Emscripten.clang"
  },
  "schemaVersion": "3.4.3",
  "updatedAt": "2021-10-07T06:31:58.252Z",
  "networkType": "ethereum",
  "devdoc": {
    "methods": {}
  },
  "userdoc": {
    "methods": {}
  }
}